120251026IPCA Energy                                50123456700000000032335000010
2000000100100350651000025874125423568914200000000002818Fatura Eletricidade 10/2025
2000000100200330000452108745961550184592300000000004172Fatura Eletricidade 10/2025
2000000100300100000123456789012312345678900000000003587Fatura Eletricidade 10/2025
2000000100400360010234567890123429845123600000000004063Fatura Eletricidade 10/2025
2000000100500230099887766554433245678912300000000002836Fatura Eletricidade 10/2025
2000000100600380011223344556677887451236900000000001702Fatura Eletricidade 10/2025
2000000100700190055667788990011215975348600000000003385Fatura Eletricidade 10/2025
2000000100800420066554433221100995175325800000000003678Fatura Eletricidade 10/2025
2000000100900330012312312312312375315984200000000004502Fatura Eletricidade 10/2025
2000000101000110099880077665544362839415700000000001592Fatura Eletricidade 10/2025
900000000032335000010
