120250326IPCA Energy                                50123456700000000025080000010
2000000100100350651000025874125423568914200000000002763Fatura Eletricidade 03/2025
2000000100200330000452108745961550184592300000000002834Fatura Eletricidade 03/2025
2000000100300100000123456789012312345678900000000003731Fatura Eletricidade 03/2025
2000000100400360010234567890123429845123600000000002323Fatura Eletricidade 03/2025
2000000100500230099887766554433245678912300000000001901Fatura Eletricidade 03/2025
2000000100600380011223344556677887451236900000000002306Fatura Eletricidade 03/2025
2000000100700190055667788990011215975348600000000003115Fatura Eletricidade 03/2025
2000000100800420066554433221100995175325800000000001514Fatura Eletricidade 03/2025
2000000100900330012312312312312375315984200000000002358Fatura Eletricidade 03/2025
2000000101000110099880077665544362839415700000000002235Fatura Eletricidade 03/2025
900000000025080000010
