120240426IPCA Energy                                50123456700000000030809000010
2000000100100350651000025874125423568914200000000004299Fatura Eletricidade 04/2024
2000000100200330000452108745961550184592300000000001461Fatura Eletricidade 04/2024
2000000100300100000123456789012312345678900000000002224Fatura Eletricidade 04/2024
2000000100400360010234567890123429845123600000000002158Fatura Eletricidade 04/2024
2000000100500230099887766554433245678912300000000001859Fatura Eletricidade 04/2024
2000000100600380011223344556677887451236900000000002739Fatura Eletricidade 04/2024
2000000100700190055667788990011215975348600000000003403Fatura Eletricidade 04/2024
2000000100800420066554433221100995175325800000000004183Fatura Eletricidade 04/2024
2000000100900330012312312312312375315984200000000004117Fatura Eletricidade 04/2024
2000000101000110099880077665544362839415700000000004366Fatura Eletricidade 04/2024
900000000030809000010
