120230726IPCA Energy                                50123456700000000028041000010
2000000100100350651000025874125423568914200000000003999Fatura Eletricidade 07/2023
2000000100200330000452108745961550184592300000000001504Fatura Eletricidade 07/2023
2000000100300100000123456789012312345678900000000001968Fatura Eletricidade 07/2023
2000000100400360010234567890123429845123600000000003860Fatura Eletricidade 07/2023
2000000100500230099887766554433245678912300000000004061Fatura Eletricidade 07/2023
2000000100600380011223344556677887451236900000000002604Fatura Eletricidade 07/2023
2000000100700190055667788990011215975348600000000003038Fatura Eletricidade 07/2023
2000000100800420066554433221100995175325800000000002806Fatura Eletricidade 07/2023
2000000100900330012312312312312375315984200000000002139Fatura Eletricidade 07/2023
2000000101000110099880077665544362839415700000000002062Fatura Eletricidade 07/2023
900000000028041000010
