120250226IPCA Energy                                50123456700000000036818000010
2000000100100350651000025874125423568914200000000005168Fatura Eletricidade 02/2025
2000000100200330000452108745961550184592300000000001879Fatura Eletricidade 02/2025
2000000100300100000123456789012312345678900000000002192Fatura Eletricidade 02/2025
2000000100400360010234567890123429845123600000000004072Fatura Eletricidade 02/2025
2000000100500230099887766554433245678912300000000004524Fatura Eletricidade 02/2025
2000000100600380011223344556677887451236900000000003932Fatura Eletricidade 02/2025
2000000100700190055667788990011215975348600000000004124Fatura Eletricidade 02/2025
2000000100800420066554433221100995175325800000000004367Fatura Eletricidade 02/2025
2000000100900330012312312312312375315984200000000002575Fatura Eletricidade 02/2025
2000000101000110099880077665544362839415700000000003985Fatura Eletricidade 02/2025
900000000036818000010
