120241226IPCA Energy                                50123456700000000034115000010
2000000100100350651000025874125423568914200000000004549Fatura Eletricidade 12/2024
2000000100200330000452108745961550184592300000000003164Fatura Eletricidade 12/2024
2000000100300100000123456789012312345678900000000003916Fatura Eletricidade 12/2024
2000000100400360010234567890123429845123600000000004104Fatura Eletricidade 12/2024
2000000100500230099887766554433245678912300000000002531Fatura Eletricidade 12/2024
2000000100600380011223344556677887451236900000000002992Fatura Eletricidade 12/2024
2000000100700190055667788990011215975348600000000004839Fatura Eletricidade 12/2024
2000000100800420066554433221100995175325800000000002240Fatura Eletricidade 12/2024
2000000100900330012312312312312375315984200000000002873Fatura Eletricidade 12/2024
2000000101000110099880077665544362839415700000000002907Fatura Eletricidade 12/2024
900000000034115000010
