120240126IPCA Energy                                50123456700000000034133000010
2000000100100350651000025874125423568914200000000002383Fatura Eletricidade 01/2024
2000000100200330000452108745961550184592300000000003767Fatura Eletricidade 01/2024
2000000100300100000123456789012312345678900000000003622Fatura Eletricidade 01/2024
2000000100400360010234567890123429845123600000000002174Fatura Eletricidade 01/2024
2000000100500230099887766554433245678912300000000003156Fatura Eletricidade 01/2024
2000000100600380011223344556677887451236900000000003494Fatura Eletricidade 01/2024
2000000100700190055667788990011215975348600000000005072Fatura Eletricidade 01/2024
2000000100800420066554433221100995175325800000000004218Fatura Eletricidade 01/2024
2000000100900330012312312312312375315984200000000003558Fatura Eletricidade 01/2024
2000000101000110099880077665544362839415700000000002689Fatura Eletricidade 01/2024
900000000034133000010
