120230426IPCA Energy                                50123456700000000029798000010
2000000100100350651000025874125423568914200000000003927Fatura Eletricidade 04/2023
2000000100200330000452108745961550184592300000000001786Fatura Eletricidade 04/2023
2000000100300100000123456789012312345678900000000002156Fatura Eletricidade 04/2023
2000000100400360010234567890123429845123600000000004250Fatura Eletricidade 04/2023
2000000100500230099887766554433245678912300000000003511Fatura Eletricidade 04/2023
2000000100600380011223344556677887451236900000000003527Fatura Eletricidade 04/2023
2000000100700190055667788990011215975348600000000001987Fatura Eletricidade 04/2023
2000000100800420066554433221100995175325800000000002587Fatura Eletricidade 04/2023
2000000100900330012312312312312375315984200000000003865Fatura Eletricidade 04/2023
2000000101000110099880077665544362839415700000000002202Fatura Eletricidade 04/2023
900000000029798000010
