120230526IPCA Energy                                50123456700000000025995000010
2000000100100350651000025874125423568914200000000001270Fatura Eletricidade 05/2023
2000000100200330000452108745961550184592300000000001530Fatura Eletricidade 05/2023
2000000100300100000123456789012312345678900000000002647Fatura Eletricidade 05/2023
2000000100400360010234567890123429845123600000000002310Fatura Eletricidade 05/2023
2000000100500230099887766554433245678912300000000003672Fatura Eletricidade 05/2023
2000000100600380011223344556677887451236900000000002280Fatura Eletricidade 05/2023
2000000100700190055667788990011215975348600000000003106Fatura Eletricidade 05/2023
2000000100800420066554433221100995175325800000000003703Fatura Eletricidade 05/2023
2000000100900330012312312312312375315984200000000002035Fatura Eletricidade 05/2023
2000000101000110099880077665544362839415700000000003442Fatura Eletricidade 05/2023
900000000025995000010
