120250626IPCA Energy                                50123456700000000033002000010
2000000100100350651000025874125423568914200000000004735Fatura Eletricidade 06/2025
2000000100200330000452108745961550184592300000000003649Fatura Eletricidade 06/2025
2000000100300100000123456789012312345678900000000002777Fatura Eletricidade 06/2025
2000000100400360010234567890123429845123600000000002599Fatura Eletricidade 06/2025
2000000100500230099887766554433245678912300000000003435Fatura Eletricidade 06/2025
2000000100600380011223344556677887451236900000000003311Fatura Eletricidade 06/2025
2000000100700190055667788990011215975348600000000003489Fatura Eletricidade 06/2025
2000000100800420066554433221100995175325800000000001940Fatura Eletricidade 06/2025
2000000100900330012312312312312375315984200000000003952Fatura Eletricidade 06/2025
2000000101000110099880077665544362839415700000000003115Fatura Eletricidade 06/2025
900000000033002000010
