120241026IPCA Energy                                50123456700000000031734000010
2000000100100350651000025874125423568914200000000003354Fatura Eletricidade 10/2024
2000000100200330000452108745961550184592300000000003698Fatura Eletricidade 10/2024
2000000100300100000123456789012312345678900000000001703Fatura Eletricidade 10/2024
2000000100400360010234567890123429845123600000000001393Fatura Eletricidade 10/2024
2000000100500230099887766554433245678912300000000003853Fatura Eletricidade 10/2024
2000000100600380011223344556677887451236900000000004111Fatura Eletricidade 10/2024
2000000100700190055667788990011215975348600000000002976Fatura Eletricidade 10/2024
2000000100800420066554433221100995175325800000000004592Fatura Eletricidade 10/2024
2000000100900330012312312312312375315984200000000003990Fatura Eletricidade 10/2024
2000000101000110099880077665544362839415700000000002064Fatura Eletricidade 10/2024
900000000031734000010
