120240726IPCA Energy                                50123456700000000028171000010
2000000100100350651000025874125423568914200000000002092Fatura Eletricidade 07/2024
2000000100200330000452108745961550184592300000000001511Fatura Eletricidade 07/2024
2000000100300100000123456789012312345678900000000001909Fatura Eletricidade 07/2024
2000000100400360010234567890123429845123600000000002556Fatura Eletricidade 07/2024
2000000100500230099887766554433245678912300000000004299Fatura Eletricidade 07/2024
2000000100600380011223344556677887451236900000000004333Fatura Eletricidade 07/2024
2000000100700190055667788990011215975348600000000003669Fatura Eletricidade 07/2024
2000000100800420066554433221100995175325800000000002457Fatura Eletricidade 07/2024
2000000100900330012312312312312375315984200000000002805Fatura Eletricidade 07/2024
2000000101000110099880077665544362839415700000000002540Fatura Eletricidade 07/2024
900000000028171000010
